:0300000002089F54
:0C089F00787FE4F6D8FD758107020800A0
:10088900EF1FAA0670011E4A600BE4FDEDC39471C7
:0508990050EE0D80F798
:01089E002237
:1008000079177C3A7B34EB75F00A120867C454F010
:10081000FFEB75F00A120867AEF0EE2FF580EC756D
:10082000F00A120867C454F0FFEC75F00A1208676A
:10083000AEF0EE2FF590E975F00A120867C454F097
:10084000FFE975F00A120867AEF0EE2FF5A07F649D
:100850007E001208890BBB3CADE4FB0CBC3CA7FC42
:0708600009B918A2F9809FFD
:10086700C2D530F707B2D563F0FF05F030E70CB219
:10087700D5F4048463F0FF05F080018430D502F4D9
:02088700042249
:00000001FF
