:030000000209D31F
:0C09D300787FE4F6D8FD75810D02094420
:0E09C500010204083F065B4F666D7D077F6FE1
:0409AB007F017E004A
:1009AF00EF1FAA0670011E4A600BE4FDEDC39471A0
:0509BF0050EE0D80F771
:0109C4002210
:10094400750827750906750A0AE4F50BAD0AAF099F
:10095400AE08120800E509B40F19E508B42714AD70
:100964000AAF09FE1208007F03120981E4F508F5B5
:0D0974000980D90509E50970D3050880CF79
:060800008E0C8F0DAB050C
:10080600AF031BEF70030208B8D293D292D291D2F3
:1008160090AE0CAF0D7C007D0A1208B9AC05EC90C9
:1008260009C993F4F580C2901209ABD293D292D241
:1008360091D290AE0CAF0D7C007D641208B97E009B
:100846007F0ACFCDCFCECCCE1208B9AC07EC93F44D
:10085600F580C2911209ABD293D292D291D290AEC8
:100866000CAF0D7C037DE81208B97E007F64CFCD06
:10087600CFCECCCE1208B9AC07EC93F4F580C29279
:100886001209ABD293D292D291D290AE0CAF0D7C1C
:10089600277D101208B97E037FE8CFCDCFCECCCE10
:1008A6001208B9AC07EC93F4F580C2931209AB02B7
:0208B600080632
:0108B800221D
:02098100A907C4
:10098300AF0119EF6021E4FCB2A67F027E001209D9
:10099300AF0CBC7BF37FC87E001209AF7D0A7F0FCB
:0709A3007E2712080080D935
:0109AA00222A
:1008B900C2D5EC30E709B2D5E4C39DFDE49CFCEE5A
:1008C90030E715B2D5E4C39FFFE49EFE1208EFC3DB
:1008D900E49DFDE49CFC80031208EF30D507C3E4D6
:0608E9009FFFE49EFE22C9
:1008EF00BC000BBE0029EF8DF084FFADF022E4CCED
:1008FF00F875F008EF2FFFEE33FEEC33FCEE9DECB6
:10090F00984005FCEE9DFE0FD5F0E9E4CEFD22EDFB
:10091F00F8F5F0EE8420D21CFEADF075F008EF2F45
:10092F00FFED33FD4007985006D5F0F222C398FD36
:05093F000FD5F0EA22D3
:00000001FF
