:03000000020800F3
:0C080000787FE4F6D8FD75810F020847F0
:0A08D8000808010204081020408007
:0408BE007F647E00D5
:1008C200EF1FAA0670011E4A600BE4FDEDC394718E
:0508D20050EE0D80F75F
:0108D70022FE
:10088C008508801208BE8509801208BE850A801270
:10089C0008BE850B801208BE850C801208BE850D23
:1008AC00801208BE850E801208BE850F801208BE0D
:0208BC0080CEEC
:10080C0002088CE493A3F8E493A34003F68001F26E
:10081C0008DFF48029E493A3F85407240CC8C333ED
:10082C00C4540F4420C8834004F456800146F6DFBC
:10083C00E4800B01020408102040809008D8E47E6C
:10084C00019360BCA3FF543F30E509541FFEE493B1
:10085C00A360010ECF54C025E060A840B8E493A378
:10086C00FAE493A3F8E493A3C8C582C8CAC583CAA3
:10087C00F0A3C8C582C8CAC583CADFE9DEE780BE5B
:0108E2000015
:00000001FF
