:03000000021508DE
:0C150800787FE4F6D8FD75815B02140EBC
:1014EA00524D53453A2025660A0022410C2243599F
:0E14FA00070653591E3D0D2641500A07525158
:081353008F438E428D418C4056
:10135B00E4FBFAF97840120A018F478E468D458CD3
:0D136B0044754B6F754A1275498375483AF9
:10137800AB47AA46A945A844AF43AE42AD41AC40ED
:10138800120A01AB47AA46A945A844120807E4FB7C
:10139800FAF9783F1208F88F538E528D518C50AB62
:1013A80047AA46A945A8441208038F4F8E4E8D4D73
:1013B8008C4CE4FFFEFDFCAB4FAA4EA94DA84C1285
:1013C8000A9E5013AF4FAE4EAD4DAC4C120B178F5B
:1013D8004F8E4E8D4D8C4C855347855246855145D1
:0313E800855044E9
:1013EB00AF4BAE4AAD49AC48AB4FAA4EA94DA84C3A
:1013FB00120A9E60054003021378AF47AE46AD4517
:02140B00AC44EF
:01140D0022BC
:10140E0078227C007D007BFF7A1479F47E007F0ABF
:10141E00120E22782C7C007D007BFF7A1479FE7EE2
:10142E00007F0A120E22E4F53BF53AF539F538F550
:03143E0036F53749
:10144100AF37742C2FF8E6FD74222FF8E6C39DFD0B
:10145100E49400FCE4120B2D8F3F8E3E8D3D8C3CBD
:10146100AB3BAA3AA939A838C000C001C002C003E9
:10147100A804A905AA06AB071208F8D003D002D028
:0E14810001D0001208078F3B8E3A8D398C384F
:10148F000537E53770020536640A453670A4E4FB6C
:10149F00FA79207841AF3BAE3AAD39AC38120A0138
:1014AF001213537BFF7A1479EA8F468E458D448C45
:0414BF0043020F468F
:10080000020B9BE86480F8E933E83360110460F080
:10081000ED33EC337009E8FCE9FDEAFEEBFF22045E
:1008200060DED3EB9FEA9EE99DE8C2E78CF0C2F759
:1008300095F0400CE8CCF8E9CDF9EACEFAEBCFFB25
:10084000120B6685D0F05804700320D5B3E804700D
:10085000075002B2D5020BA592D5EC0460F7E4CCA8
:10086000C0E0C398F8603B94186008400DD0E0FBEE
:10087000020B7DE4FBFAC9FC8028E830E406E4C9F9
:10088000FBE4CAFCE830E305E4C9CACBFCE8540742
:100890006010F8C3E913F9EA13FAEB13FBEC13FC4D
:1008A000D8F130F52FC3E49CFCEF9BFFEE9AFEEDF0
:1008B00099FDD0E0FBEF4E4D4C701222DB03020B92
:1008C000A2EC2CFCEF33FFEE33FEED33FDED30E711
:1008D000EB020B7DEF2BFFEE3AFEED39FDD0E0FB96
:1008E00050130BBB0003020BA5ED13FDEE13FEEF3F
:0808F00013FFEC13FC020B7D69
:1008F800EC4D6011E8497017ED33EC3304600DE4FA
:10090800FCFFFEFD22E933E8330470F8020B9B126A
:100918000B6658046009E4CC24815006285009026B
:100928000BA5284003020BA2C0E0EB4A7044B98033
:1009380006D0E0FB020B91EF4E701CBD8008EBFF68
:10094800EAFEE9FD80EBE98DF0A4FEE5F00209E19D
:10095800E9CDF9EAFEEBFFEF89F0A4FCE5F0CE89DA
:10096800F0A42EFFE435F0CD89F0A42DFEE435F097
:100978008067EF4E7005BD80D780C3EF8BF0A4ACC5
:10098800F0EE8BF0A42CFCE435F0F8EF8AF0A42C00
:10099800E5F038FCE433CB8DF0A42CFCE5F03BF813
:1009A800EE8AF0A42CFCE5F038F8E433CF89F0A403
:1009B8002CFCE5F038CF3400CE89F0A42FFFE5F009
:1009C8003EFEE433C98DF0A42EFEE5F039CD8AF061
:1009D800A42FFFE5F03EFEE43DFD33D0E0FB5007D9
:1009E8000BBB000F020BA5EC2CFCEF33FFEE33FE24
:0609F800ED33FD020B7D52
:1009FE00020BA5EC5D046005E859047003020B9B25
:100A0E00120B66580460F6EC4860F2EC7004FDFEC2
:100A1E00FF22C860DB2481C85009C39860025006CB
:100A2E00020BA29850CAF582E9294B4A7005AB8297
:100A3E00020B9175F0007C1A7880C3EF9BEE9AED55
:100A4E0099400DC3EF9BFFEE9AFEED99FDE842F043
:100A5E00DC23ACF0D0E0FFD0E0FED0E0FDAB822096
:100A6E00E7101BEB60BAEC2CFCEF33FFEE33FEED20
:100A7E0033FD020B7DE803F830E705C0F075F0009A
:100A8E00EF2FFFEE33FEED33FD40B830E7C280AA04
:100A9E0074F8CC6480CCC86480C8F58204604FC3FF
:100AAE00EB9FF5F0EA9E42F0E99D42F0E89C45F09E
:100ABE00603C501DE5825FFFE582D313CB5BCBF428
:100ACE002B5582FB50280ABA002409B90020088051
:100ADE001DE5825BFBE582D313CF5FCFF4C3132FEB
:100AEE005582FF50090EBE00050DBD00010CC3EB73
:100AFE009FF5F0EA9E42F0E99D42F0E89C45F060D9
:090B0E0007CC4820E701B3EC22FA
:100B1700ED33EC33600A047003BD8004ECB2E7FCEC
:010B270022AB
:100B280075F020800E75F010800575F0087D007E48
:100B3800007F003392D530D503120EA0EC3340105D
:100B4800EF33FFEE33FEED33FDEC33FCD5F0ED2251
:0E0B5800E5F0247EA2D513CC92E7CDCEFF228D
:100EE400E5572443F8E60557227840300702784353
:100EF400E475F001120EAE020E482000EB7F2ED2F4
:100F0400008018EF540F2490D43440D4FF30040BE5
:100F1400EF24BFB41A0050032461FFE558600215A2
:100F240058055BE55B7002055A30070D7840E4759F
:100F3400F001120EAEEF020E8E0214C37403D20738
:100F44008003E4C207F5578B408A418942E4F5588F
:100F5400F55AF55BE55860077F20120F1F80F57581
:100F640059FFC201C200C202C203C205C206C208BE
:100F7400120EEDFF700D3007057F00120F30AF5BCE
:100F8400AE5A22B4255FC2D5C204120EEDFF24D09E
:100F9400B40A00501A75F00A785830D50508B6FF1F
:100FA4000106C6A426F620D5047002D20380D924F3
:100FB400CFB41A00EF5004C2E5D20402121DD201CC
:100FC40080C6D20080C0D20280BCD2D580BAD205FD
:100FD40080B47F20120F1F2002077401B55800400F
:100FE400F1120EE4FF120F1F020F58D208D206802E
:100FF40095120EE4FB120EE4FA120EE4F94A4B7059
:101004000679147A137BFF20022EE558602A7E00AD
:101014008E82758300120E6160060EEE655970F0C3
:10102400C2D5EBC0E0EAC0E0E9C0E0EE12127DD028
:10103400E0F9D0E0FAD0E0FB120E48FF60AAEBC062
:10104400E0EAC0E0E9C0E0120F1FD0E02401F9D0CB
:10105400E03400FAD0E0FBE5590460DCD559D980CE
:1010640087D20280A212126060F7E559700104125F
:101074000BB0A959600DE559600914F5591213070D
:10108400EF60F3EA30E702F404C3995077EAF425F9
:10109400590430E701E404F559800D12126060C16F
:1010A400EA05592559120BB0EA7856F630E701E4FF
:1010B400255904D559042005011412127DE4C0E019
:1010C4001213077856E6601320E70714F6120F0789
:1010D400802204F6D0E014C0E07F00120F07E55927
:1010E4006007120EFE1559800B300503120EFED058
:1010F400E0020F58D0E00480C512126060A0E559E8
:1011040004120BB07856EAF6E55920050260010492
:05111400240412127D0D
:1011190074FF04C0E0121307120F07E559200502F6
:101129006003120EFED0E0B559E87F45120F117821
:1011390056E67F2B30E7047F2DF404C0E0120F1F21
:10114900D0E075F00A84C0F0120F08D0E0120F0841
:10115900020F58791080027908C206C2088008D2A5
:10116900D5790A8004790AC2D5E559047002F5597E
:10117900E4FAFDFEFF120EE4FC7B08200113120EB7
:10118900E4FD7B1030000A120EE4FE120EE4FF7B30
:1011990020EC3382D592D55013C3E43000069FFF6B
:1011A900E49EFEE42001039DFDE49CFCE4CBF8C22F
:1011B90001EC700CCFCECDCCE824F8F870F3801791
:1011C900C3EF33FFEE33FEED33FDEC33FCEB33FBC2
:1011D900994002FB0FD8E9EB300105F8D0E0C4488B
:1011E900B201C0E00AEC4D4E4F78207B0070C2EA94
:1011F900B5590040BCC0E012127FD0F0D0E0200108
:1012090004C4C0E0C4B201C0F0120F08D0F0D5F098
:10121900EB020F58120EBE0FF553115C580FC64C56
:101229000FC24211604F1168441168490FDB431125
:101239006E55109F4610FD451069471334500FCA6B
:101249002D0FCE2E0FF12B0FD2230FEF20131D2AB6
:101259000F8A4800000FE9E559B4FF0375590612D2
:101269000EE4FC120EE4FD120EE4FE120EE4FF7809
:101279004F020BDF790AA2D5200314300509B910F2
:10128900020404B9080104A2D52006025001042071
:1012990002689202B558005034C0E07F203003192B
:1012A9007F30A20272067205500F1212D6C202C214
:1012B90006C205C2087F30800F300503E9C0E0127D
:1012C9000F1F300503D0E0F9D0E0B558CC30051731
:1012D9007F30B9100C120F1F7F583004077F7880B8
:1012E90003B90803120F1F3002057F2D020F1F7F5C
:1012F900202008F87F2B2006F322920280CF7F005E
:10130900B407005005244FF8E6FF22286E756C6C6F
:101319002900D201120EE43001F8C201785830D503
:101329000108F6020F8A2D50434958120EE424038E
:10133900B405004001E490132F93120F10743A1270
:0A1349000F10D20375580402115C66
:100B6600E9D2E7C933E833F892D5EDD2E7CD33ECD5
:070B760033FC5002B2D5224E
:100B7D00EC30E7100FBF000C0EBE00080DBD0004D9
:100B8D000BEB6014A2D5EB13FCED92E7FD2274FF85
:100B9D00FCFDFEFF22E480F8A2D574FF13FC7D80DE
:030BAD00E480EFF2
:100BB000F920E72824F950037907E4F42402FB180C
:100BC000DBFDE624FB5014E9600DE4F618E604F6BC
:0F0BD000B40A08E4F6D9F57401F60A22C2D52258
:100BDF00ED33EC3392D5FA602AB4FF33EDC2E77BE5
:100BEF00FF60067A0C7904E4227A0C790D20D50483
:100BFF007A0C7908224E614E002B494E46002D4942
:100C0F004E4600E47A08F608DAFC7B00740722E807
:100C1F00C0E0ECC0E0EDC0E0EEC0E0EFC0E0EA7590
:100C2F00F010A4CAABF075F04DA42BFBE435F0FC2B
:100C3F00EA2410FAEB34C5FBEC34D9FCEDC2E7FF24
:100C4F0075F056A4F42411C5F0F434C58FF0A42A1E
:100C5F00E5F03BE43CF620E714120D12D0E0FFD094
:100C6F00E0FED0E0FDD0E0FC120A018014F4041283
:100C7F000D12D0E0FFD0E0FED0E0FDD0E0FC120876
:100C8F00F8D0E0F8E6FAEDD2E7CD33EC332482FB6F
:100C9F00E4C3CF33CFCE33CECD33CD33DBF37B07AE
:100CAF0075F00A846004F6081B0AE5F0F6088FF069
:100CBF00740AA4FFACF08EF0740AA42CFEACF050B2
:100CCF00010C8DF0740AA42CFDE435F0F608DBDE80
:030CDF0074072275
:100CE2003F8000004120000042C80000447A00001A
:100CF200461C400047C35000497424004B1896809C
:100D02004CBEBC205A0E1BCA6753C21C749DC5AE92
:100D1200FB60065407601C2323120D40EB5438601D
:100D220009120D2C120D3B1208F8ECF8EDF9EEFA4F
:100D3200EFCB22EB120D3B80F1543803241C900CB4
:100D4200E2FE93FC0EEE93FD0EEE930ECE93FF2287
:100D5200E709F608DFFA8046E709F208DFFA803E83
:100D620088828C83E709F0A3DFFA8032E309F60870
:100D7200DFFA8078E309F208DFFA807088828C83D8
:100D8200E309F0A3DFFA806489828A83E0A3F6088C
:100D9200DFFA805889828A83E0A3F208DFFA804C66
:100DA20080D280FA80C680D4806980F2803380103D
:100DB20080A680EA809A80A880DA80E280CA8033A6
:100DC20089828A83ECFAE493A3C8C582C8CCC5831E
:100DD200CCF0A3C8C582C8CCC583CCDFE9DEE780EE
:100DE2000D89828A83E493A3F608DFF9ECFAA9F06D
:100DF200EDFB2289828A83ECFAE0A3C8C582C8CCC3
:100E0200C583CCF0A3C8C582C8CCC583CCDFEADEDB
:100E1200E880DB89828A83E493A3F208DFF980CC3D
:100E220088F0EF60010E4E60C388F0ED2402B40436
:100E32000050B9F582EB2402B4040050AF232345DD
:060E42008223900DA27353
:100E4800BB010689828A83E0225002E722BBFE02A8
:090E5800E32289828A83E49322DB
:100E6100BB010CE58229F582E5833AF583E0225046
:100E710006E92582F8E622BBFE06E92582F8E22290
:0D0E8100E58229F582E5833AF583E49322AA
:100E8E00BB010689828A83F0225002F722BBFE0143
:020E9E00F3223D
:0E0EA000C3E49FFFE49EFEE49DFDE49CFC2263
:100EAE00FAE6FB0808E6F925F0F618E6CA3AF62245
:100EBE00D083D082F8E4937012740193700DA3A3C3
:100ECE0093F8740193F5828883E4737402936860D7
:060EDE00EFA3A3A380DFD7
:1014C300EFB40A07740D1214CE740A309811A89958
:1014D300B8130CC2983098FDA899C298B811F63089
:0714E30099FDC299F5992261
:00000001FF
