:030000000208B93A
:0C08B900787FE4F6D8FD75810D0209007F
:0E0A5100010204083F065B4F666D7D077F6F54
:0C0A5F00010B17010A3B01093A01080ACB
:040A37007F017E00BD
:100A3B00EF1FAA0670011E4A600BE4FDEDC3947113
:050A4B0050EE0D80F7E4
:010A50002283
:1009D000E50A75F064A47C002509FFEC35F0FEAD56
:1009E000081208000509E509C3943C40E3E4F50951
:1009F000050AE50A943C40D8E4F50A050BE50B64CA
:0D0A00001860CDE4F50B7F03120A0D80C3D2
:060800008E0C8F0DAB050C
:10080600AF031BEF70030208B8D293D292D291D2F3
:1008160090AE0CAF0D7C007D0A120945AC05EC903C
:100826000A5593F4F580C290120A37D293D292D227
:1008360091D290AE0CAF0D7C007D641209457E000E
:100846007F0ACFCDCFCECCCE120945AC07EC93F4C0
:10085600F580C291120A37D293D292D291D290AE3B
:100866000CAF0D7C037DE81209457E007F64CFCD79
:10087600CFCECCCE120945AC07EC93F4F580C292EC
:10088600120A37D293D292D291D290AE0CAF0D7C8F
:10089600277D101209457E037FE8CFCDCFCECCCE83
:1008A600120945AC07EC93F4F580C293120A37029D
:0208B600080632
:0108B800221D
:020A0D00A90737
:100A0F00AF0119EF6021E4FCB2A67F027E00120A4B
:100A1F003B0CBC7BF37FC87E00120A3B7D0A7F0F25
:070A2F007E2712080080D9A8
:010A3600229D
:1008C5000209D0E493A3F8E493A34003F68001F270
:1008D50008DFF48029E493A3F85407240CC8C33334
:1008E500C4540F4420C8834004F456800146F6DF03
:1008F500E4800B0102040810204080900A5FE47E2A
:10090500019360BCA3FF543F30E509541FFEE493F7
:10091500A360010ECF54C025E060A840B8E493A3BE
:10092500FAE493A3F8E493A3C8C582C8CAC583CAE9
:10093500F0A3C8C582C8CAC583CADFE9DEE780BEA1
:010A6B00008A
:10094500C2D5EC30E709B2D5E4C39DFDE49CFCEECD
:1009550030E715B2D5E4C39FFFE49EFE12097BC3C1
:10096500E49DFDE49CFC800312097B30D507C3E4BC
:060975009FFFE49EFE223C
:10097B00BC000BBE0029EF8DF084FFADF022E4CC60
:10098B00F875F008EF2FFFEE33FEEC33FCEE9DEC29
:10099B00984005FCEE9DFE0FD5F0E9E4CEFD22ED6F
:1009AB00F8F5F0EE8420D21CFEADF075F008EF2FB9
:1009BB00FFED33FD4007985006D5F0F222C398FDAA
:0509CB000FD5F0EA2247
:00000001FF
