:030000000208985B
:0C089800787FE4F6D8FD758107020800A7
:10085000211E010121010121010101210111040CCD
:100860001E80010C0108010C0108010C010A0400A2
:10087000EF1FAA0670011E4A600BE4FDEDC39471E0
:0508800050EE0D80F7B1
:010885002250
:10080000E4FBEBFF3395E0FE74502FF58274083E55
:10081000F583E49360EA0BEF3395E0FE74502FF517
:100820008274083EF583E493F4F580AF030BEF3355
:1008300095E0FE74502FF58274083EF583E493FF33
:100840003395E0FE7C007D6412088612087080B249
:10088600EF8DF0A4A8F0CF8CF0A428CE8DF0A42E86
:02089600FE2240
:00000001FF
