:030000000208AE45
:0C08AE00787FE4F6D8FD75810702080091
:10089800EF1FAA0670011E4A600BE4FDEDC39471B8
:0508A80050EE0D80F789
:0108AD002228
:1008000079177C3A7B34EB75F00A120876C454F001
:10081000FFEB75F00A120876AEF0EE2FF580EC755E
:10082000F00A120876C454F0FFEC75F00A1208764C
:10083000AEF0EE2FF590E975F00A120876C454F088
:10084000FFE975F00A120876AEF0EE2FF5A07F648E
:100850007E001208980BC3EB648094BC40A8E4FBB4
:100860000CEC648094BC409EE4FC09E9648094989C
:060870004094E4F98090C1
:10087600C2D530F707B2D563F0FF05F030E70CB20A
:10088600D5F4048463F0FF05F080018430D502F4CA
:0208960004223A
:00000001FF
